{
  "_format": "hh-sol-artifact-1",
  "contractName": "NFTMinter",
  "sourceName": "contracts/NftMinter.sol",
  "abi": [
    {
      "inputs": [],
      "stateMutability": "nonpayable",
      "type": "constructor"
    },
    {
      "anonymous": false,
      "inputs": [
        {
          "indexed": true,
          "internalType": "address",
          "name": "owner",
          "type": "address"
        },
        {
          "indexed": true,
          "internalType": "address",
          "name": "approved",
          "type": "address"
        },
        {
          "indexed": true,
          "internalType": "uint256",
          "name": "tokenId",
          "type": "uint256"
        }
      ],
      "name": "Approval",
      "type": "event"
    },
    {
      "anonymous": false,
      "inputs": [
        {
          "indexed": true,
          "internalType": "address",
          "name": "owner",
          "type": "address"
        },
        {
          "indexed": true,
          "internalType": "address",
          "name": "operator",
          "type": "address"
        },
        {
          "indexed": false,
          "internalType": "bool",
          "name": "approved",
          "type": "bool"
        }
      ],
      "name": "ApprovalForAll",
      "type": "event"
    },
    {
      "anonymous": false,
      "inputs": [
        {
          "indexed": false,
          "internalType": "uint256",
          "name": "_fromTokenId",
          "type": "uint256"
        },
        {
          "indexed": false,
          "internalType": "uint256",
          "name": "_toTokenId",
          "type": "uint256"
        }
      ],
      "name": "BatchMetadataUpdate",
      "type": "event"
    },
    {
      "anonymous": false,
      "inputs": [
        {
          "indexed": false,
          "internalType": "uint256",
          "name": "_tokenId",
          "type": "uint256"
        }
      ],
      "name": "MetadataUpdate",
      "type": "event"
    },
    {
      "anonymous": false,
      "inputs": [
        {
          "indexed": true,
          "internalType": "address",
          "name": "from",
          "type": "address"
        },
        {
          "indexed": true,
          "internalType": "address",
          "name": "to",
          "type": "address"
        },
        {
          "indexed": true,
          "internalType": "uint256",
          "name": "tokenId",
          "type": "uint256"
        }
      ],
      "name": "Transfer",
      "type": "event"
    },
    {
      "inputs": [
        {
          "internalType": "address",
          "name": "to",
          "type": "address"
        },
        {
          "internalType": "uint256",
          "name": "tokenId",
          "type": "uint256"
        }
      ],
      "name": "approve",
      "outputs": [],
      "stateMutability": "nonpayable",
      "type": "function"
    },
    {
      "inputs": [
        {
          "internalType": "address",
          "name": "owner",
          "type": "address"
        }
      ],
      "name": "balanceOf",
      "outputs": [
        {
          "internalType": "uint256",
          "name": "",
          "type": "uint256"
        }
      ],
      "stateMutability": "view",
      "type": "function"
    },
    {
      "inputs": [
        {
          "internalType": "uint256",
          "name": "tokenId",
          "type": "uint256"
        }
      ],
      "name": "getApproved",
      "outputs": [
        {
          "internalType": "address",
          "name": "",
          "type": "address"
        }
      ],
      "stateMutability": "view",
      "type": "function"
    },
    {
      "inputs": [
        {
          "internalType": "address",
          "name": "owner",
          "type": "address"
        },
        {
          "internalType": "address",
          "name": "operator",
          "type": "address"
        }
      ],
      "name": "isApprovedForAll",
      "outputs": [
        {
          "internalType": "bool",
          "name": "",
          "type": "bool"
        }
      ],
      "stateMutability": "view",
      "type": "function"
    },
    {
      "inputs": [
        {
          "internalType": "address",
          "name": "recipient",
          "type": "address"
        },
        {
          "internalType": "string",
          "name": "tokenURI",
          "type": "string"
        }
      ],
      "name": "mintNFT",
      "outputs": [
        {
          "internalType": "uint256",
          "name": "",
          "type": "uint256"
        }
      ],
      "stateMutability": "nonpayable",
      "type": "function"
    },
    {
      "inputs": [],
      "name": "name",
      "outputs": [
        {
          "internalType": "string",
          "name": "",
          "type": "string"
        }
      ],
      "stateMutability": "view",
      "type": "function"
    },
    {
      "inputs": [
        {
          "internalType": "uint256",
          "name": "tokenId",
          "type": "uint256"
        }
      ],
      "name": "ownerOf",
      "outputs": [
        {
          "internalType": "address",
          "name": "",
          "type": "address"
        }
      ],
      "stateMutability": "view",
      "type": "function"
    },
    {
      "inputs": [
        {
          "internalType": "address",
          "name": "from",
          "type": "address"
        },
        {
          "internalType": "address",
          "name": "to",
          "type": "address"
        },
        {
          "internalType": "uint256",
          "name": "tokenId",
          "type": "uint256"
        }
      ],
      "name": "safeTransferFrom",
      "outputs": [],
      "stateMutability": "nonpayable",
      "type": "function"
    },
    {
      "inputs": [
        {
          "internalType": "address",
          "name": "from",
          "type": "address"
        },
        {
          "internalType": "address",
          "name": "to",
          "type": "address"
        },
        {
          "internalType": "uint256",
          "name": "tokenId",
          "type": "uint256"
        },
        {
          "internalType": "bytes",
          "name": "data",
          "type": "bytes"
        }
      ],
      "name": "safeTransferFrom",
      "outputs": [],
      "stateMutability": "nonpayable",
      "type": "function"
    },
    {
      "inputs": [
        {
          "internalType": "address",
          "name": "operator",
          "type": "address"
        },
        {
          "internalType": "bool",
          "name": "approved",
          "type": "bool"
        }
      ],
      "name": "setApprovalForAll",
      "outputs": [],
      "stateMutability": "nonpayable",
      "type": "function"
    },
    {
      "inputs": [
        {
          "internalType": "bytes4",
          "name": "interfaceId",
          "type": "bytes4"
        }
      ],
      "name": "supportsInterface",
      "outputs": [
        {
          "internalType": "bool",
          "name": "",
          "type": "bool"
        }
      ],
      "stateMutability": "view",
      "type": "function"
    },
    {
      "inputs": [],
      "name": "symbol",
      "outputs": [
        {
          "internalType": "string",
          "name": "",
          "type": "string"
        }
      ],
      "stateMutability": "view",
      "type": "function"
    },
    {
      "inputs": [
        {
          "internalType": "uint256",
          "name": "tokenId",
          "type": "uint256"
        }
      ],
      "name": "tokenURI",
      "outputs": [
        {
          "internalType": "string",
          "name": "",
          "type": "string"
        }
      ],
      "stateMutability": "view",
      "type": "function"
    },
    {
      "inputs": [
        {
          "internalType": "address",
          "name": "from",
          "type": "address"
        },
        {
          "internalType": "address",
          "name": "to",
          "type": "address"
        },
        {
          "internalType": "uint256",
          "name": "tokenId",
          "type": "uint256"
        }
      ],
      "name": "transferFrom",
      "outputs": [],
      "stateMutability": "nonpayable",
      "type": "function"
    }
  ],
  "bytecode": "0x60806040523480156200001157600080fd5b506040518060400160405280600f81526020017f4c696e6561204e46544d696e74657200000000000000000000000000000000008152506040518060400160405280600481526020017f4c4e465400000000000000000000000000000000000000000000000000000000815250816000908051906020019062000096929190620000b8565b508060019080519060200190620000af929190620000b8565b505050620001cd565b828054620000c69062000168565b90600052602060002090601f016020900481019282620000ea576000855562000136565b82601f106200010557805160ff191683800117855562000136565b8280016001018555821562000136579182015b828111156200013557825182559160200191906001019062000118565b5b50905062000145919062000149565b5090565b5b80821115620001645760008160009055506001016200014a565b5090565b600060028204905060018216806200018157607f821691505b602082108114156200019857620001976200019e565b5b50919050565b7f4e487b7100000000000000000000000000000000000000000000000000000000600052602260045260246000fd5b6129e480620001dd6000396000f3fe608060405234801561001057600080fd5b50600436106100ea5760003560e01c806370a082311161008c578063b88d4fde11610066578063b88d4fde1461025b578063c87b56dd14610277578063e985e9c5146102a7578063eacabe14146102d7576100ea565b806370a08231146101f157806395d89b4114610221578063a22cb4651461023f576100ea565b8063095ea7b3116100c8578063095ea7b31461016d57806323b872dd1461018957806342842e0e146101a55780636352211e146101c1576100ea565b806301ffc9a7146100ef57806306fdde031461011f578063081812fc1461013d575b600080fd5b61010960048036038101906101049190611e92565b610307565b604051610116919061220c565b60405180910390f35b610127610368565b6040516101349190612227565b60405180910390f35b61015760048036038101906101529190611ee4565b6103fa565b60405161016491906121a5565b60405180910390f35b61018760048036038101906101829190611e56565b610440565b005b6101a3600480360381019061019e9190611cfc565b610558565b005b6101bf60048036038101906101ba9190611cfc565b6105b8565b005b6101db60048036038101906101d69190611ee4565b6105d8565b6040516101e891906121a5565b60405180910390f35b61020b60048036038101906102069190611c97565b61065f565b60405161021891906123c9565b60405180910390f35b610229610717565b6040516102369190612227565b60405180910390f35b61025960048036038101906102549190611dc6565b6107a9565b005b61027560048036038101906102709190611d4b565b6107bf565b005b610291600480360381019061028c9190611ee4565b610821565b60405161029e9190612227565b60405180910390f35b6102c160048036038101906102bc9190611cc0565b610934565b6040516102ce919061220c565b60405180910390f35b6102f160048036038101906102ec9190611e02565b6109c8565b6040516102fe91906123c9565b60405180910390f35b6000634906490660e01b7bffffffffffffffffffffffffffffffffffffffffffffffffffffffff1916827bffffffffffffffffffffffffffffffffffffffffffffffffffffffff19161480610361575061036082610a00565b5b9050919050565b60606000805461037790612564565b80601f01602080910402602001604051908101604052809291908181526020018280546103a390612564565b80156103f05780601f106103c5576101008083540402835291602001916103f0565b820191906000526020600020905b8154815290600101906020018083116103d357829003601f168201915b5050505050905090565b600061040582610ae2565b6004600083815260200190815260200160002060009054906101000a900473ffffffffffffffffffffffffffffffffffffffff169050919050565b600061044b826105d8565b90508073ffffffffffffffffffffffffffffffffffffffff168373ffffffffffffffffffffffffffffffffffffffff1614156104bc576040517f08c379a00000000000000000000000000000000000000000000000000000000081526004016104b390612389565b60405180910390fd5b8073ffffffffffffffffffffffffffffffffffffffff166104db610b2d565b73ffffffffffffffffffffffffffffffffffffffff16148061050a575061050981610504610b2d565b610934565b5b610549576040517f08c379a0000000000000000000000000000000000000000000000000000000008152600401610540906123a9565b60405180910390fd5b6105538383610b35565b505050565b610569610563610b2d565b82610bee565b6105a8576040517f08c379a000000000000000000000000000000000000000000000000000000000815260040161059f90612249565b60405180910390fd5b6105b3838383610c83565b505050565b6105d3838383604051806020016040528060008152506107bf565b505050565b6000806105e483610f7d565b9050600073ffffffffffffffffffffffffffffffffffffffff168173ffffffffffffffffffffffffffffffffffffffff161415610656576040517f08c379a000000000000000000000000000000000000000000000000000000000815260040161064d90612369565b60405180910390fd5b80915050919050565b60008073ffffffffffffffffffffffffffffffffffffffff168273ffffffffffffffffffffffffffffffffffffffff1614156106d0576040517f08c379a00000000000000000000000000000000000000000000000000000000081526004016106c790612309565b60405180910390fd5b600360008373ffffffffffffffffffffffffffffffffffffffff1673ffffffffffffffffffffffffffffffffffffffff168152602001908152602001600020549050919050565b60606001805461072690612564565b80601f016020809104026020016040519081016040528092919081815260200182805461075290612564565b801561079f5780601f106107745761010080835404028352916020019161079f565b820191906000526020600020905b81548152906001019060200180831161078257829003601f168201915b5050505050905090565b6107bb6107b4610b2d565b8383610fba565b5050565b6107d06107ca610b2d565b83610bee565b61080f576040517f08c379a000000000000000000000000000000000000000000000000000000000815260040161080690612249565b60405180910390fd5b61081b84848484611127565b50505050565b606061082c82610ae2565b600060066000848152602001908152602001600020805461084c90612564565b80601f016020809104026020016040519081016040528092919081815260200182805461087890612564565b80156108c55780601f1061089a576101008083540402835291602001916108c5565b820191906000526020600020905b8154815290600101906020018083116108a857829003601f168201915b5050505050905060006108d6611183565b90506000815114156108ec57819250505061092f565b600082511115610921578082604051602001610909929190612181565b6040516020818303038152906040529250505061092f565b61092a8461119a565b925050505b919050565b6000600560008473ffffffffffffffffffffffffffffffffffffffff1673ffffffffffffffffffffffffffffffffffffffff16815260200190815260200160002060008373ffffffffffffffffffffffffffffffffffffffff1673ffffffffffffffffffffffffffffffffffffffff16815260200190815260200160002060009054906101000a900460ff16905092915050565b60006109d46007611202565b60006109e06007611218565b90506109ec8482611226565b6109f68184611444565b8091505092915050565b60007f80ac58cd000000000000000000000000000000000000000000000000000000007bffffffffffffffffffffffffffffffffffffffffffffffffffffffff1916827bffffffffffffffffffffffffffffffffffffffffffffffffffffffff19161480610acb57507f5b5e139f000000000000000000000000000000000000000000000000000000007bffffffffffffffffffffffffffffffffffffffffffffffffffffffff1916827bffffffffffffffffffffffffffffffffffffffffffffffffffffffff1916145b80610adb5750610ada826114ef565b5b9050919050565b610aeb81611559565b610b2a576040517f08c379a0000000000000000000000000000000000000000000000000000000008152600401610b2190612369565b60405180910390fd5b50565b600033905090565b816004600083815260200190815260200160002060006101000a81548173ffffffffffffffffffffffffffffffffffffffff021916908373ffffffffffffffffffffffffffffffffffffffff160217905550808273ffffffffffffffffffffffffffffffffffffffff16610ba8836105d8565b73ffffffffffffffffffffffffffffffffffffffff167f8c5be1e5ebec7d5bd14f71427d1e84f3dd0314c0f7b2291e5b200ac8c7c3b92560405160405180910390a45050565b600080610bfa836105d8565b90508073ffffffffffffffffffffffffffffffffffffffff168473ffffffffffffffffffffffffffffffffffffffff161480610c3c5750610c3b8185610934565b5b80610c7a57508373ffffffffffffffffffffffffffffffffffffffff16610c62846103fa565b73ffffffffffffffffffffffffffffffffffffffff16145b91505092915050565b8273ffffffffffffffffffffffffffffffffffffffff16610ca3826105d8565b73ffffffffffffffffffffffffffffffffffffffff1614610cf9576040517f08c379a0000000000000000000000000000000000000000000000000000000008152600401610cf090612289565b60405180910390fd5b600073ffffffffffffffffffffffffffffffffffffffff168273ffffffffffffffffffffffffffffffffffffffff161415610d69576040517f08c379a0000000000000000000000000000000000000000000000000000000008152600401610d60906122c9565b60405180910390fd5b610d76838383600161159a565b8273ffffffffffffffffffffffffffffffffffffffff16610d96826105d8565b73ffffffffffffffffffffffffffffffffffffffff1614610dec576040517f08c379a0000000000000000000000000000000000000000000000000000000008152600401610de390612289565b60405180910390fd5b6004600082815260200190815260200160002060006101000a81549073ffffffffffffffffffffffffffffffffffffffff02191690556001600360008573ffffffffffffffffffffffffffffffffffffffff1673ffffffffffffffffffffffffffffffffffffffff168152602001908152602001600020600082825403925050819055506001600360008473ffffffffffffffffffffffffffffffffffffffff1673ffffffffffffffffffffffffffffffffffffffff16815260200190815260200160002060008282540192505081905550816002600083815260200190815260200160002060006101000a81548173ffffffffffffffffffffffffffffffffffffffff021916908373ffffffffffffffffffffffffffffffffffffffff160217905550808273ffffffffffffffffffffffffffffffffffffffff168473ffffffffffffffffffffffffffffffffffffffff167fddf252ad1be2c89b69c2b068fc378daa952ba7f163c4a11628f55a4df523b3ef60405160405180910390a4610f7883838360016115a0565b505050565b60006002600083815260200190815260200160002060009054906101000a900473ffffffffffffffffffffffffffffffffffffffff169050919050565b8173ffffffffffffffffffffffffffffffffffffffff168373ffffffffffffffffffffffffffffffffffffffff161415611029576040517f08c379a0000000000000000000000000000000000000000000000000000000008152600401611020906122e9565b60405180910390fd5b80600560008573ffffffffffffffffffffffffffffffffffffffff1673ffffffffffffffffffffffffffffffffffffffff16815260200190815260200160002060008473ffffffffffffffffffffffffffffffffffffffff1673ffffffffffffffffffffffffffffffffffffffff16815260200190815260200160002060006101000a81548160ff0219169083151502179055508173ffffffffffffffffffffffffffffffffffffffff168373ffffffffffffffffffffffffffffffffffffffff167f17307eab39ab6107e8899845ad3d59bd9653f200f220920489ca2b5937696c318360405161111a919061220c565b60405180910390a3505050565b611132848484610c83565b61113e848484846115a6565b61117d576040517f08c379a000000000000000000000000000000000000000000000000000000000815260040161117490612269565b60405180910390fd5b50505050565b606060405180602001604052806000815250905090565b60606111a582610ae2565b60006111af611183565b905060008151116111cf57604051806020016040528060008152506111fa565b806111d98461173d565b6040516020016111ea929190612181565b6040516020818303038152906040525b915050919050565b6001816000016000828254019250508190555050565b600081600001549050919050565b600073ffffffffffffffffffffffffffffffffffffffff168273ffffffffffffffffffffffffffffffffffffffff161415611296576040517f08c379a000000000000000000000000000000000000000000000000000000000815260040161128d90612349565b60405180910390fd5b61129f81611559565b156112df576040517f08c379a00000000000000000000000000000000000000000000000000000000081526004016112d6906122a9565b60405180910390fd5b6112ed60008383600161159a565b6112f681611559565b15611336576040517f08c379a000000000000000000000000000000000000000000000000000000000815260040161132d906122a9565b60405180910390fd5b6001600360008473ffffffffffffffffffffffffffffffffffffffff1673ffffffffffffffffffffffffffffffffffffffff16815260200190815260200160002060008282540192505081905550816002600083815260200190815260200160002060006101000a81548173ffffffffffffffffffffffffffffffffffffffff021916908373ffffffffffffffffffffffffffffffffffffffff160217905550808273ffffffffffffffffffffffffffffffffffffffff16600073ffffffffffffffffffffffffffffffffffffffff167fddf252ad1be2c89b69c2b068fc378daa952ba7f163c4a11628f55a4df523b3ef60405160405180910390a46114406000838360016115a0565b5050565b61144d82611559565b61148c576040517f08c379a000000000000000000000000000000000000000000000000000000000815260040161148390612329565b60405180910390fd5b806006600084815260200190815260200160002090805190602001906114b3929190611abb565b507ff8e1a15aba9398e019f0b49df1a4fde98ee17ae345cb5f6b5e2c27f5033e8ce7826040516114e391906123c9565b60405180910390a15050565b60007f01ffc9a7000000000000000000000000000000000000000000000000000000007bffffffffffffffffffffffffffffffffffffffffffffffffffffffff1916827bffffffffffffffffffffffffffffffffffffffffffffffffffffffff1916149050919050565b60008073ffffffffffffffffffffffffffffffffffffffff1661157b83610f7d565b73ffffffffffffffffffffffffffffffffffffffff1614159050919050565b50505050565b50505050565b60006115c78473ffffffffffffffffffffffffffffffffffffffff16611861565b15611730578373ffffffffffffffffffffffffffffffffffffffff1663150b7a026115f0610b2d565b8786866040518563ffffffff1660e01b815260040161161294939291906121c0565b602060405180830381600087803b15801561162c57600080fd5b505af192505050801561165d57506040513d601f19601f8201168201806040525081019061165a9190611ebb565b60015b6116e0573d806000811461168d576040519150601f19603f3d011682016040523d82523d6000602084013e611692565b606091505b506000815114156116d8576040517f08c379a00000000000000000000000000000000000000000000000000000000081526004016116cf90612269565b60405180910390fd5b805181602001fd5b63150b7a0260e01b7bffffffffffffffffffffffffffffffffffffffffffffffffffffffff1916817bffffffffffffffffffffffffffffffffffffffffffffffffffffffff191614915050611735565b600190505b949350505050565b60606000600161174c84611884565b01905060008167ffffffffffffffff811115611791577f4e487b7100000000000000000000000000000000000000000000000000000000600052604160045260246000fd5b6040519080825280601f01601f1916602001820160405280156117c35781602001600182028036833780820191505090505b509050600082602001820190505b600115611856578080600190039150507f3031323334353637383961626364656600000000000000000000000000000000600a86061a8153600a8581611840577f4e487b7100000000000000000000000000000000000000000000000000000000600052601260045260246000fd5b049450600085141561185157611856565b6117d1565b819350505050919050565b6000808273ffffffffffffffffffffffffffffffffffffffff163b119050919050565b600080600090507a184f03e93ff9f4daa797ed6e38ed64bf6a1f0100000000000000008310611908577a184f03e93ff9f4daa797ed6e38ed64bf6a1f01000000000000000083816118fe577f4e487b7100000000000000000000000000000000000000000000000000000000600052601260045260246000fd5b0492506040810190505b6d04ee2d6d415b85acef8100000000831061196b576d04ee2d6d415b85acef81000000008381611961577f4e487b7100000000000000000000000000000000000000000000000000000000600052601260045260246000fd5b0492506020810190505b662386f26fc1000083106119c057662386f26fc1000083816119b6577f4e487b7100000000000000000000000000000000000000000000000000000000600052601260045260246000fd5b0492506010810190505b6305f5e1008310611a0f576305f5e1008381611a05577f4e487b7100000000000000000000000000000000000000000000000000000000600052601260045260246000fd5b0492506008810190505b6127108310611a5a576127108381611a50577f4e487b7100000000000000000000000000000000000000000000000000000000600052601260045260246000fd5b0492506004810190505b60648310611aa35760648381611a99577f4e487b7100000000000000000000000000000000000000000000000000000000600052601260045260246000fd5b0492506002810190505b600a8310611ab2576001810190505b80915050919050565b828054611ac790612564565b90600052602060002090601f016020900481019282611ae95760008555611b30565b82601f10611b0257805160ff1916838001178555611b30565b82800160010185558215611b30579182015b82811115611b2f578251825591602001919060010190611b14565b5b509050611b3d9190611b41565b5090565b5b80821115611b5a576000816000905550600101611b42565b5090565b6000611b71611b6c84612409565b6123e4565b905082815260208101848484011115611b8957600080fd5b611b94848285612522565b509392505050565b6000611baf611baa8461243a565b6123e4565b905082815260208101848484011115611bc757600080fd5b611bd2848285612522565b509392505050565b600081359050611be981612952565b92915050565b600081359050611bfe81612969565b92915050565b600081359050611c1381612980565b92915050565b600081519050611c2881612980565b92915050565b600082601f830112611c3f57600080fd5b8135611c4f848260208601611b5e565b91505092915050565b600082601f830112611c6957600080fd5b8135611c79848260208601611b9c565b91505092915050565b600081359050611c9181612997565b92915050565b600060208284031215611ca957600080fd5b6000611cb784828501611bda565b91505092915050565b60008060408385031215611cd357600080fd5b6000611ce185828601611bda565b9250506020611cf285828601611bda565b9150509250929050565b600080600060608486031215611d1157600080fd5b6000611d1f86828701611bda565b9350506020611d3086828701611bda565b9250506040611d4186828701611c82565b9150509250925092565b60008060008060808587031215611d6157600080fd5b6000611d6f87828801611bda565b9450506020611d8087828801611bda565b9350506040611d9187828801611c82565b925050606085013567ffffffffffffffff811115611dae57600080fd5b611dba87828801611c2e565b91505092959194509250565b60008060408385031215611dd957600080fd5b6000611de785828601611bda565b9250506020611df885828601611bef565b9150509250929050565b60008060408385031215611e1557600080fd5b6000611e2385828601611bda565b925050602083013567ffffffffffffffff811115611e4057600080fd5b611e4c85828601611c58565b9150509250929050565b60008060408385031215611e6957600080fd5b6000611e7785828601611bda565b9250506020611e8885828601611c82565b9150509250929050565b600060208284031215611ea457600080fd5b6000611eb284828501611c04565b91505092915050565b600060208284031215611ecd57600080fd5b6000611edb84828501611c19565b91505092915050565b600060208284031215611ef657600080fd5b6000611f0484828501611c82565b91505092915050565b611f16816124ae565b82525050565b611f25816124c0565b82525050565b6000611f368261246b565b611f408185612481565b9350611f50818560208601612531565b611f5981612625565b840191505092915050565b6000611f6f82612476565b611f798185612492565b9350611f89818560208601612531565b611f9281612625565b840191505092915050565b6000611fa882612476565b611fb281856124a3565b9350611fc2818560208601612531565b80840191505092915050565b6000611fdb602d83612492565b9150611fe682612636565b604082019050919050565b6000611ffe603283612492565b915061200982612685565b604082019050919050565b6000612021602583612492565b915061202c826126d4565b604082019050919050565b6000612044601c83612492565b915061204f82612723565b602082019050919050565b6000612067602483612492565b91506120728261274c565b604082019050919050565b600061208a601983612492565b91506120958261279b565b602082019050919050565b60006120ad602983612492565b91506120b8826127c4565b604082019050919050565b60006120d0602e83612492565b91506120db82612813565b604082019050919050565b60006120f3602083612492565b91506120fe82612862565b602082019050919050565b6000612116601883612492565b91506121218261288b565b602082019050919050565b6000612139602183612492565b9150612144826128b4565b604082019050919050565b600061215c603d83612492565b915061216782612903565b604082019050919050565b61217b81612518565b82525050565b600061218d8285611f9d565b91506121998284611f9d565b91508190509392505050565b60006020820190506121ba6000830184611f0d565b92915050565b60006080820190506121d56000830187611f0d565b6121e26020830186611f0d565b6121ef6040830185612172565b81810360608301526122018184611f2b565b905095945050505050565b60006020820190506122216000830184611f1c565b92915050565b600060208201905081810360008301526122418184611f64565b905092915050565b6000602082019050818103600083015261226281611fce565b9050919050565b6000602082019050818103600083015261228281611ff1565b9050919050565b600060208201905081810360008301526122a281612014565b9050919050565b600060208201905081810360008301526122c281612037565b9050919050565b600060208201905081810360008301526122e28161205a565b9050919050565b600060208201905081810360008301526123028161207d565b9050919050565b60006020820190508181036000830152612322816120a0565b9050919050565b60006020820190508181036000830152612342816120c3565b9050919050565b60006020820190508181036000830152612362816120e6565b9050919050565b6000602082019050818103600083015261238281612109565b9050919050565b600060208201905081810360008301526123a28161212c565b9050919050565b600060208201905081810360008301526123c28161214f565b9050919050565b60006020820190506123de6000830184612172565b92915050565b60006123ee6123ff565b90506123fa8282612596565b919050565b6000604051905090565b600067ffffffffffffffff821115612424576124236125f6565b5b61242d82612625565b9050602081019050919050565b600067ffffffffffffffff821115612455576124546125f6565b5b61245e82612625565b9050602081019050919050565b600081519050919050565b600081519050919050565b600082825260208201905092915050565b600082825260208201905092915050565b600081905092915050565b60006124b9826124f8565b9050919050565b60008115159050919050565b60007fffffffff0000000000000000000000000000000000000000000000000000000082169050919050565b600073ffffffffffffffffffffffffffffffffffffffff82169050919050565b6000819050919050565b82818337600083830152505050565b60005b8381101561254f578082015181840152602081019050612534565b8381111561255e576000848401525b50505050565b6000600282049050600182168061257c57607f821691505b602082108114156125905761258f6125c7565b5b50919050565b61259f82612625565b810181811067ffffffffffffffff821117156125be576125bd6125f6565b5b80604052505050565b7f4e487b7100000000000000000000000000000000000000000000000000000000600052602260045260246000fd5b7f4e487b7100000000000000000000000000000000000000000000000000000000600052604160045260246000fd5b6000601f19601f8301169050919050565b7f4552433732313a2063616c6c6572206973206e6f7420746f6b656e206f776e6560008201527f72206f7220617070726f76656400000000000000000000000000000000000000602082015250565b7f4552433732313a207472616e7366657220746f206e6f6e20455243373231526560008201527f63656976657220696d706c656d656e7465720000000000000000000000000000602082015250565b7f4552433732313a207472616e736665722066726f6d20696e636f72726563742060008201527f6f776e6572000000000000000000000000000000000000000000000000000000602082015250565b7f4552433732313a20746f6b656e20616c7265616479206d696e74656400000000600082015250565b7f4552433732313a207472616e7366657220746f20746865207a65726f2061646460008201527f7265737300000000000000000000000000000000000000000000000000000000602082015250565b7f4552433732313a20617070726f766520746f2063616c6c657200000000000000600082015250565b7f4552433732313a2061646472657373207a65726f206973206e6f74206120766160008201527f6c6964206f776e65720000000000000000000000000000000000000000000000602082015250565b7f45524337323155524953746f726167653a2055524920736574206f66206e6f6e60008201527f6578697374656e7420746f6b656e000000000000000000000000000000000000602082015250565b7f4552433732313a206d696e7420746f20746865207a65726f2061646472657373600082015250565b7f4552433732313a20696e76616c696420746f6b656e2049440000000000000000600082015250565b7f4552433732313a20617070726f76616c20746f2063757272656e74206f776e6560008201527f7200000000000000000000000000000000000000000000000000000000000000602082015250565b7f4552433732313a20617070726f76652063616c6c6572206973206e6f7420746f60008201527f6b656e206f776e6572206f7220617070726f76656420666f7220616c6c000000602082015250565b61295b816124ae565b811461296657600080fd5b50565b612972816124c0565b811461297d57600080fd5b50565b612989816124cc565b811461299457600080fd5b50565b6129a081612518565b81146129ab57600080fd5b5056fea2646970667358221220dbe672d14d268ebc979e3ff370854b260ffb3fd77e381494b75da41f8a20b61e64736f6c63430008030033",
  "linkReferences": {},
  "deployedLinkReferences": {}
}